{
  "contractName": "HelloWorld",
  "abi": [
    {
      "constant": false,
      "inputs": [],
      "name": "SayHello",
      "outputs": [
        {
          "internalType": "string",
          "name": "",
          "type": "string"
        }
      ],
      "payable": false,
      "stateMutability": "nonpayable",
      "type": "function"
    }
  ],
  "bytecode": "0x608060405234801561001057600080fd5b5061011d806100206000396000f3fe6080604052348015600f57600080fd5b506004361060285760003560e01c80633acb315014602d575b600080fd5b603360ab565b6040518080602001828103825283818151815260200191508051906020019080838360005b8381101560715780820151818401526020810190506058565b50505050905090810190601f168015609d5780820380516001836020036101000a031916815260200191505b509250505060405180910390f35b60606040518060400160405280600c81526020017f48656c6c6f20576f726c6421000000000000000000000000000000000000000081525090509056fea265627a7a7231582079d8aa618143bb37562be7398e16246f1dc5b5f411a45e41b6f7f4c28c88cfca64736f6c63430005100032",
  "source": "pragma solidity ^0.5.16;\r\n\r\ncontract HelloWorld\r\n{\r\n\tfunction SayHello() public returns (string memory)\r\n\t{\r\n\t\treturn \"Hello World!\";\r\n\t}\r\n}",
  "sourcePath": "C:\\Users\\kannarao_karnam\\Documents\\kannarao\\ethereum\\HelloWorld\\contracts\\HelloWorld.sol",
  "compiler": {
    "name": "solc",
    "version": "0.5.16+commit.9c3226ce.Emscripten.clang"
  },
  "schemaVersion": "3.4.3",
  "updatedAt": "2021-09-22T11:17:47.161Z",
  "networkType": "ethereum",
  "devdoc": {
    "methods": {}
  },
  "userdoc": {
    "methods": {}
  }
}